S0180000476363426F61726450726F6A656374312E737265630F
S113000068210020F9100000F5100000F510000030
S113001000000000000000000000000000000000DC
S1130020000000000000000000000000F5100000C7
S11300300000000000000000F5100000F5100000B2
S1130040F5100000F5100000F5100000F510000098
S1130050F5100000F5100000F5100000F510000088
S1130060F5100000F5100000F5100000F510000078
S113007049120000F5100000F5100000F510000012
S1130080F5100000F5100000F5100000F510000058
S1130090F5100000F5100000F510000085050000C3
S11300A0F5100000F5100000F5100000F510000038
S11300B00000000010B5064C2378002B07D1054B37
S11300C0002B02D0044800E000BF0123237010BDC0
S11300D07C00002000000000C8210000084B10B57F
S11300E0002B03D00749084800E000BF0748036815
S11300F0002B00D110BD064B002BFBD09847F9E72D
S11301000000000080000020C8210000C821000079
S11301100000000010B5002200230270427000218C
S11301204280017103760262C26182600373C0245B
S11301306401C481037443748374C37403752A24EF
S1130140035543758375063C0355C2840285C17506
S11301502B23C1540133C15410BD0000F0B5D64661
S11301604F464646C0B596B0070016000160C64A21
S1130170106A80235B02034313620B780520DB07BC
S113018005D516B01CBC90469946A246F0BD0B7826
S113019017309B07F5D473783B71002B04D1BB4A0D
S11301A0136C04210B4313640023BB60FB603B61AD
S11301B0BB76FB763B833B77B54B1F602A23F35C0E
S11301C0002B05D1337D002B02D101337B7701E075
S11301D000237B773B68984633786A4613706946F8
S11301E01E20AC4B98471E20AB4B98472C23F25C47
S11301F0002A54D0013BF55C337BEB18DBB2D118F9
S1130200C9B28B4221D25219D3B29946A34B9A4612
S113021003E00135EDB24D4517D00F242C40337B5C
S1130220E41850229E4902A8D047132CF1D8A40008
S113023002ABE05801A900234B70CB708B700133E3
S11302400B70C0B2974B9847E3E7F4895022944966
S113025002A8924B9847132C13D9737D9B00DBB2F1
S113026042461370B37DDB0172781343DBB242461E
S113027053703379342B00D97BE19B008A4AD358DD
S11302809F46A40002ABE05801A900234B70CB7039
S11302908B7001330B70C0B2824B9847DDE7347B1F
S11302A050227F4902A87D4B9847132C15D9F48915
S11302B050227B4902A8794B9847132CCDD8A4002F
S11302C002ABE05801A900234B70CB708B70013353
S11302D00B70C0B2734B9847BFE7A40002ABE05861
S11302E001A900234B70CB708B7001330B70C0B22B
S11302F06C4B9847DBE70423102402211AE0717C3D
S1130300337C102416E006231024012112E0082374
S1130310102400210EE00023302400210AE00023F1
S11303202024002106E000230024002102E002230F
S113033010240121090170220A401343424693709C
S1130340F37D17203F2B00D91BE7D3703A68537E07
S11303505BB2002BFBDBF37C728813432422B25C78
S1130360D2001343327D92001343B27C52001343F4
S1130370234342469380337E002B20D0102C00D19F
S1130380D9E000D898E0202C00D1B6E0302C16D16A
S1130390F27C002A0AD0F26980321720FF2A00D9A1
S11303A0EFE6326A8032FF2A00D9EAE61720F269C2
S11303B0FF2A00DDE5E6326AFF2A00DDE1E639685E
S11303C04A7E52B2002AFBDB424613723A68537EDD
S11303D05BB2002BFBDBB38B424693833A68537EBC
S11303E05BB2002BFBDB338C424613842C23F35C7F
S11303F0002B05D0013BDBB217200F2B00D9C0E640
S11304002B22B15C17200F2900D9BAE63868427E46
S113041052B2002AFBDBF289307B0243B06802430C
S113042009050A431B041343424613612A23F35C60
S113043013750F2393751533F35C002B12D0F38CD3
S11304401A4A1720934200D99BE642469384328D80
S113045080231B01D31815499BB28B4200D990E627
S11304604346DA84124B1B685B01E022D20013403E
S1130470104A516849011268D20E0A43D2B213439A
S11304804246138500207CE600040040000800403A
S1130490C8000020450F0000B90E000099170000A5
S11304A0C020000095100000EC1F0000FF0F0000AA
S11304B02460800020608000002C00D07FE7F27C64
S11304C0002A0FD0F269802109018C4662442A492E
S11304D017208A4200D954E6326A624426498A4285
S11304E000D94EE6244A1720F169914200DD48E61E
S11304F0316A914200DD44E661E7F27C002A0FD0C4
S1130500F269802189008C4662441C4917208A4282
S113051000D936E6326A624418498A4200D930E684
S1130520164A1720F169914200DD2AE6316A9142A8
S113053000DD26E643E7F27C002A0FD0F269802131
S113054009028C4662440E4917208A4200D918E6F3
S1130550326A62440A498A4200D912E6084A1720DC
S1130560F169914200DD0CE6316A914200DD08E652
S113057025E7172005E6C046FF0F0000FF03000033
S1130580FFFF000070B52F4B1D682B681A7EDC7DC1
S11305901440E20716D4630708D504232A681376A7
S11305A0EB7E9B0702D5AB7E9B0742D4A30708D5FD
S11305B002232A681376EB7E5B0702D5AB7E5B07CA
S11305C03BD470BD01221A762A68537E5BB2002B9D
S11305D0FBDB69698B1C6B61538B9BB20B802B8B90
S11305E0013B9BB22B83002B11D06B7F002BD2D00D
S11305F02A68537E5BB2002BFBDB137B02210B4387
S113060013732A68537E5BB2002BFBDBC3E7012321
S11306102A6893752B7F052BBDD100232B77EB7EA6
S1130620DB07B8D5AB7EDB07B5D52800AB689847A8
S1130630B1E72800EB689847B8E72B69280098478A
S1130640BFE7C046C8000020931C9B00195001233B
S113065093401A00837E13438376704710B5038B4F
S11306609BB20524002B01D0200010BD037F052B75
S1130670FAD00523037702834161043B0268D375F2
S1130680437F0024002BEFD00268537E5BB2002B23
S1130690FBDB137B02210B4313730268537E5BB2B3
S11306A0002BFBDB0024DFE770B580225201254BD1
S11306B01A60254C23680225AB43236023681C225F
S11306C09343183A134323602368204A134023605A
S11306D023681F4A1A4080235B0313432360236863
S11306E01C4A1340236063680722934363602268B3
S11306F08023DB05134323602368174A13402360D8
S11307006368402293436360144B1A680001101A13
S1130710010C00040023124EB04780B2A08162682D
S113072080239B0213436360626880235B0213434C
S11307306360A37D04221343A37523681D432560CE
S113074070BDC04600E100E000140042FFFFFFEF6F
S1130750FFFFCFFFFFFFFCFFFFFFFFF000000020C3
S11307603D15000010B50D4B1B7EDB0700D410BDFA
S11307700029FCD004000139C9B201314018074AEC
S1130780138D21785B0A5B020B431385137E9B0751
S1130790FCD501348442F3D1E9E7C0460014004299
S11307A070B50020084B98470500084CFA218900D1
S11307B0A047074B186007492800A047064B18605C
S11307C00522064B1A6070BD2D0E00002514000092
S11307D00400002040420F000800002010E000E068
S11307E030B5084B1C68084A0025802149020138AD
S11307F007D3002CFBD05460956013680B42FCD0E7
S1130800F5E730BD0400002010E000E00C4B1B684D
S1130810002B06D1EFF31083002B07D00022094BE5
S11308201A70074A136801331360704772B6BFF336
S11308305F8F0022044B1A700132024B1A70F0E7EA
S1130840980000209C0000200C000020084B1A682F
S1130850013A1A601B68002B09D1064B1B78002B48
S113086005D00122044B1A70BFF35F8F62B6704744
S1130870980000209C0000200C000020F0B583B0FC
S113088001AC012565700027A770257021003E206A
S1130890064EB0478022D205054B9A6127706570D9
S11308A021000F20B04703B0F0BDC046B5080000DA
S11308B08044004100B583B001AB80221A700A78ED
S11308C05A704A789A708A78DA701900014B9847FE
S11308D003B000BD9510000010B5082803D88000AF
S11308E01C4B1B589F46002032E01B4B18692FE01D
S11308F01A4B1B6A9B059B0F1948D84028E0164BDE
S1130900586925E0144B1B6800209B0720D5134928
S11309101022CB681A42FCD00F4B1A6824231340D0
S1130920042B01D00F4813E000200F4B98470A4BCB
S11309309B681B041B0C58430AE05023074AD35CF2
S113094000205B0704D5044BD86801E08020000236
S113095010BDC04610210000A00000200008004087
S113096000127A00006CDC02610F000070B50C49C3
S11309700B6A047885784078012210408001402673
S1130980B34303432A40D201802083431343032209
S1130990224012020348034013430B6270BDC04659
S11309A000080040FFFCFFFFF0B5DE4657464E4608
S11309B04546E0B50100264B9B469B8A4578007866
S11309C04242424191468878CA7894460A799046D0
S11309D04E7B0F7B8C7B8A681E494A6101214A4603
S11309E092009146042293434A46134342460A40E6
S11309F0D2009046082293434246134362460A407B
S1130A001201944610229343624613430840400166
S1130A102022934303430F40BF01402083433B43C1
S1130A200E40F601403083433343793805402D02AC
S1130A30094803402B4321400903084803400B4362
S1130A405A4693823CBC90469946A246AB46F0BDBA
S1130A5000080040A0000020FFF8FFFFFFEFFFFFA9
S1130A6010B5037A9B061B0C42899205920D134321
S1130A7018494B608379C27913434288848822439E
S1130A8013434278D20113430B600378042B11D033
S1130A90202B0ED1037B9B06028A1343C2891204C6
S1130AA00D490A4013430B4A936011680B4B0B43E7
S1130AB0136010BD037B9B06028A1343C289120490
S1130AC005490A401343034A9360136804210B4306
S1130AD01360EEE7A00000200000FF0324040000E0
S1130AE0082803D88000254B1B589F46172044E054
S1130AF0234A136A02210B43136200203DE0204A7B
S1130B00936902210B439361002036E01C4A138A47
S1130B1002210B43138200202FE0194A938A0221F9
S1130B200B439382002028E016490B6802221343EA
S1130B300B60134B9A8419000E32CB681A42FCD016
S1130B40104A91680E4BD96252689A6200229A84C4
S1130B5019001032CB681A42FCD00A4B1B689BB2B6
S1130B60074A9384002008E0054944228B5C022054
S1130B7003438B54002000E0002070473421000020
S1130B8000080040A0000020F0B5CE46474680B5DE
S1130B908FB0C222D200504B9A60504A53681E2133
S1130BA08B431C390B435360032201AB1A7000249E
S1130BB04B4DE0B201A9A8470134252CF9D10AA86C
S1130BC0002303708370802212028260C3700122AA
S1130BD0027103738373053242704373414B984728
S1130BE00520414B98473C490222CB681A42FCD06D
S1130BF0394A938A80210B43938205AB002100225A
S1130C00598099809A71DA713F3159813B39197051
S1130C105A70364B1B689B0E3F2B5BD005A80372A2
S1130C20B723DB000382072303733833C381304BBC
S1130C30984704A8002545700126867005702D4B41
S1130C4098470620284FB8472B4B984701AC02968B
S1130C506570257265720523237021000120274BDE
S1130C60994698470120264B9846984766606570D8
S1130C70062323702572657221000220C8470220D2
S1130C80C047267021000020154B984700201D4BBB
S1130C9098470720B8471049D022CB681340D02B7F
S1130CA0FBD1194A0023137253729372D37201A9B0
S1130CB001224A604B700B724B7207330B70002099
S1130CC00E4B984700200E4B98470FB00CBC904633
S1130CD09946F0BD203BA1E70008004000400041D8
S1130CE0450F0000A9090000E10A0000246080000B
S1130CF0610A00006D0900000D0D0000310D0000B7
S1130D00E90D0000B90E000000040040064A936992
S1130D1008210B4393610122044B1A7019000B78CC
S1130D201342FCD17047C04600040040000C004050
S1130D3070B5060004000D782D0205434B78002B96
S1130D4002D08023DB021D434B7A002B02D0802388
S1130D501B031D434868012810D9431E184234D18F
S1130D60022830D90223002201325B009842FBD8CA
S1130D7012023243140080235B031D430B7A002BC1
S1130D8002D080239B031D43134A53785BB2002B8C
S1130D90FBDB124B9847124B1E700F4A53785BB221
S1130DA0002BFBDB0C4B9C601A0053785BB2002BCE
S1130DB0FBDB094A5368802149020B401D435560FF
S1130DC0084B984770BD0022D2E7040234438023C5
S1130DD09B021D43D2E7C046000C00400D080000F2
S1130DE0080C00404D08000010B504000B4A53786D
S1130DF05BB2002BFBDB0A4B98470A4B1C70074A7B
S1130E0053785BB2002BFBDB044A516880235B02FE
S1130E100B435360044B984710BDC046000C004080
S1130E200D080000040C00404D08000070B50400DB
S1130E301A4A53785BB2002BFBDB194B9847194BCA
S1130E401C70164A53785BB2002BFBDB134E7068A0
S1130E50C004C00E144B98470500124B1C707668F2
S1130E60F602F60F114B1C700C4A53785BB2002B40
S1130E70FBDB0A4B9C682402240C0D4B9847002E84
S1130E8007D1012C07D9210028000A4B98470500F7
S1130E9001E00134E540280070BDC046000C00406C
S1130EA00D080000040C0040D9080000080C0040A4
S1130EB04D0800002514000010B50400064B9847A7
S1130EC0064B1C70064A53888021C9010B4353808A
S1130ED0044B984710BDC0460D080000020C0040AA
S1130EE0000C00404D08000010B504000F4B98475B
S1130EF00F4B1C700F4A53881B05180F53880E495B
S1130F000B40538053880D490B40538011008022BD
S1130F10D2014B881342FCD106494A880302064891
S1130F20024013434B80064B984710BD0D08000048
S1130F30020C0040000C0040FFF0FFFFFFBFFFFF6A
S1130F404D08000010B50C7824020443024B984766
S1130F50A4B2024B5C8010BDE90E0000000C0040FE
S1130F6010B50400064B9847064B1C70064B5C8872
S1130F702405240F054B98472000054B984710BDC6
S1130F800D080000020C0040000C00404D08000059
S1130F902D0E000070B500281CDBC3170326320099
S1130FA01A401218FF24A40022400E4CA4466244A6
S1130FB0C025AD0054599B0FC0183040C31ADB0044
S1130FC00633DBB29E40B443994021435151002380
S1130FD0180070BD1723421CFAD18907024B19620D
S1130FE00023F5E700E100E000ED00E030B5D37840
S1130FF0002B35D11378802B29D01B068024640262
S1131000234354780225AC4306D19478002C20D194
S11310108024A402234341605478013C012C1CD950
S11310200D042D0CA024E4052C431C4384620D0CF8
S1131030D02424062C431C438462D478002C22D16F
S11310405B031CD59378012B1ED0416117E000236C
S1131050D7E7C024E4022343DDE70D4C2340DFE758
S113106041600C04240CA023DB05234383620C0C95
S1131070D0231B0623438362D378002B03D15378F8
S1131080013B012B02D930BD8161F8E78160FAE7A9
S1131090FFFFFBFF10B50A00C1090023002904D19A
S11310A04309DB0105498C4663441F242040012188
S11310B081401800024B984710BDC04600440041CF
S11310C0ED0F00007047000010B5054B9847054B25
S11310D09847054B9847054B9847054B984710BDD3
S11310E0890B00007D080000C5100000C510000039
S11310F0C5100000FEE70000F8B52A4A2A4B9A42C0
S113110011D01A00294B9A420DD2294A03339B1A53
S11311109B0801339B000022234822498C588450A9
S113112004329A42FAD1234A234B9A420AD2D34335
S113113021495B1803218B4304339B18002102C20D
S11311409342FCD11D4AFF211D4B8B439360FD3913
S113115090235B001B4AD1501B4AD3780325AB4331
S113116002242343D370D3780C27BB43082633438C
S1131170D370164B987B30229043202210439873EF
S1131180997BB943314399739A7BAA4322439A7357
S11311900F4A536880210B4353600E4B98470E4B04
S11311A09847FEE7C8210000000000207C000020D2
S11311B0040000207C0000206801002000ED00E015
S11311C00000000000700041005000410048004150
S11311D000400041511700002D1300000300064A8F
S11311E01268002A04D0044A1068C31813607047B8
S11311F00249014A1160F6E7B80000206821002086
S113120010B50A4B1A880A4C0A4920000A4B984721
S113121007212000094B9847052220212000084B74
S11312209847FA204000074B984710BD3001002032
S11312301000002058210000BD17000065070000C1
S1131240AB170000E107000010B50D4B18780D4BEB
S11312501B8DDBB20C4A13540A2B09D00A4BC0185D
S113126001210A4B9847064A13780133137010BDC5
S113127080180121054B98470022014B1A70F6E7AC
S1131280BC00002000140042CC00002065070000D0
S113129010B58CB06846174B984702236A46137002
S11312A0F02212050292E022D20069464A806A4680
S11312B04B7000230B7320330B710F4C0F4920002C
S11312C00F4B98472268537E5BB2002BFBDB8021D7
S11312D009040C4B19600F239375137613780221BC
S11312E00B431370044B1A68537E5BB2002BFBDB79
S11312F00CB010BD15010000440100200040004264
S11313005D01000000E100E010B5054C0022054934
S11313102000054B9847E37E01221343E37610BD7A
S113132044010020011200004906000070B586B097
S11313302A4B98472A4B98472A4C236A2022134366
S11313402362294A294B5A80294B5622995C01254C
S1131350294399543B215A5C0F20824302200243C3
S11313605A5457201A5C2A431A54585C0F220240DC
S1131370202002435A54E12040021E4B98471E4B42
S113138001221A70BFF35F8F62B600210C201B4D3F
S1131390A84701211720A847194B9847194B98478C
S11313A00020194B9847237ADBB2D840059001A856
S11313B0164B020032CB32C2198811809B7893708D
S11313C00F21134B98473220124B9847124E134D5E
S11313D0134C0A2231002800A047FAE7C910000084
S11313E0A10700000004004017400000000C00406A
S11313F000440041A90600000C000020950F0000E5
S113140091120000091300002D0E00005C21000061
S113141065070000E10700003001002044010020BE
S11314205D060000002243088B4274D303098B42FB
S11314305FD3030A8B4244D3030B8B4228D3030CA0
S11314408B420DD3FF22090212BA030C8B4202D342
S11314501212090265D0030B8B4219D300E0090A6A
S1131460C30B8B4201D3CB03C01A5241830B8B4273
S113147001D38B03C01A5241430B8B4201D34B035C
S1131480C01A5241030B8B4201D30B03C01A5241C1
S1131490C30A8B4201D3CB02C01A5241830A8B4246
S11314A001D38B02C01A5241430A8B4201D34B022F
S11314B0C01A5241030A8B4201D30B02C01A524193
S11314C0CDD2C3098B4201D3CB01C01A5241830947
S11314D08B4201D38B01C01A524143098B4201D381
S11314E04B01C01A524103098B4201D30B01C01AAC
S11314F05241C3088B4201D3CB00C01A5241830826
S11315008B4201D38B00C01A524143088B4201D352
S11315104B00C01A5241411A00D2014652411046B2
S11315207047FFE701B5002000F006F802BDC04691
S11315300029F7D076E770477047C046002B11D1D9
S1131540002A0FD1002900D1002802D00021C9436C
S1131550081C07B4024802A14018029003BDC0460B
S1131560D9FFFFFF03B4684601B5029800F006F8FE
S1131570019B9E4602B00CBC7047C046F0B557466E
S11315804E464546DE46E0B5040083B00D00924663
S113159099468B422FD82CD04946504600F0AEF8DD
S11315A029000600200000F0A9F8331A9846203BD1
S11315B09B4600D574E053465A4693401F00534659
S11315C0424693401E00AF4229D826D05B46A41B56
S11315D0BD41002B00DA79E0002200230092019340
S11315E001235A46934001930123424693400093BA
S11315F019E08242D0D900220023009201930C9B6F
S1131600002B01D01C605D600098019903B03CBCC4
S113161090469946A246AB46F0BDA342D6D90022D5
S11316200023009201934346002BE8D0FB07720885
S11316301A4346467B080EE0AB4201D1A2420CD8C5
S1131640A41A9D41012024196D410021013E241852
S11316504D41002E06D0AB42EED9013E24196D4116
S1131660002EF8D15B460098019900196941002BBE
S113167022DB2B005A46D3402A004446E2401C0099
S11316805B461500002B2CDB26009E403300260011
S11316904746BE403200801A994100900191AEE75E
S11316A0424620239B1A5246DA40414613004A46DA
S11316B08A4017001F4382E7424620239B1A2A00D0
S11316C046469A402300F3401343D5E7424620237D
S11316D000219B1A0022009101920122DA4001921A
S11316E082E74246202326009B1ADE402F00B446A0
S11316F0974066463B003343C9E7C04610B500290E
S113170003D100F007F8203002E0081C00F002F8D2
S113171010BDC0461C2101231B04984201D3000CB8
S113172010391B0A984201D3000A08391B09984250
S113173001D30009043902A2105C40187047C04666
S11317400403020201010101000000000000000086
S113175070B500260C4D0D4C641BA410A64209D193
S1131760002600F01DFD0A4D0A4C641BA410A6427D
S113177005D170BDB300EB5898470136EEE7B300CE
S1131780EB5898470136F2E7AC210000AC21000089
S1131790AC210000B0210000002310B59A4200D112
S11317A010BDCC5CC4540133F8E7030082189342A3
S11317B000D1704719700133F9E700000EB410B579
S11317C09DB002A9029008610B4882248860486198
S11317D0012040421FABC881084804CBA400006824
S11317E001938C8100F06EF80023029A13701DB0EF
S11317F010BC08BC03B01847FFFFFF7F180000208F
S1131800F0B58E6885B007000C00039201939E42E8
S113181039D890238A89DB001A4234D00325096918
S113182023685B1A0293636902985D43EB0F5D19A9
S1131830019B6D1001331B18AB4200D91D005305E9
S113184032D52900380000F031FB061E09D10C23E3
S11318503B6040230120A28940421343A38105B089
S1131860F0BD029A2169FFF797FFA389144A1A4031
S113187080231343A381029B2661F61826606561C9
S1131880019EED1AA560019BB34200D21E003200F6
S11318900399206800F0ADFAA36800209B1BA360A5
S11318A023689E192660DAE72A00380000F05CFB02
S11318B0061EE0D12169380000F0AEFAC7E7C04641
S11318C07FFBFFFFF0B59FB0029005938B890F005B
S11318D016001B0611D50B69002B0ED1402100F018
S11318E0E5FA38603861002805D10C23029A0138E2
S11318F013601FB0F0BD40237B61002306AD6B6114
S113190020336B761033AB7634002378002B47D129
S1131910A31B04930DD0A31B320039000298FFF7D8
S11319206FFF431C00D1B5E06A69049B944663448D
S11319306B612378002B00D1ACE0012200235242DA
S11319406A6002A95432521801342B60EB60AB6018
S11319501370AB65584E05222178300000F03EFA32
S1131960621C002820D12968CB0604D5532302AE7B
S113197020309B1918700B0704D553232B2002AE7B
S11319809B19187023782A2B16D000200A21099B52
S11319902278303A092A55D9002815D0099313E042
S11319A0252BB5D00134B0E70123801B834029687F
S11319B014000B432B60CDE7059B181D1B68059095
S11319C0002B39DB0993140023782E2B0BD1637879
S11319D0621C2A2B3ED1059B02341A1D1B680592FA
S11319E0002B34DB0793354E21780322300000F0BE
S11319F0F5F9002806D04023801B83402A6801346F
S1131A0013432B60217806222D48661C297600F0AA
S1131A10E5F9002846D02B4B002B2FD12968059BD4
S1131A200722C90528D59B189343083305936B698E
S1131A30039A9B186B6167E75B42EB6002230B43DD
S1131A402B60C0E74B4301349B180120A0E701231E
S1131A505B42C7E7002314000A201A006B60217858
S1131A603039092903D9002BBDD00792BBE7424383
S1131A70013452180123F2E70733D5E705AB00938D
S1131A803A00114B2900029800E000BF0390039B29
S1131A900133CCD1BB890B985B0600D429E7012024
S1131AA0404226E705AB00933A00074B2900029811
S1131AB000F07AF8EAE7C0466C21000072210000C9
S1131AC0762100000000000001180000F7B51500A1
S1131AD001938A680B6900900C00934200DA1300AA
S1131AE022002B6043321278002A01D001332B608C
S1131AF023689B0602D52B6802332B6006272368D4
S1131B001F4027D0230043331B785A1E9341226879
S1131B10920630D42200019943320098089EB047BF
S1131B20431C25D0062320682A68E1680340002569
S1131B30042B03D18D1AEB43DB171D40A3682269E4
S1131B40934201DD9B1AED180027BD4220D10020ED
S1131B5010E00137E3682A689B1A9F42D2DA220018
S1131B600123193201990098089EB047431CF0D113
S1131B7001204042FEBD3020E118433108702100AD
S1131B805A1C45310978A218433202331170C1E757
S1131B90220001231A3201990098089EB047431C81
S1131BA0E6D00137D1E70000F0B58BB006920A0009
S1131BB043320793059004920A7E0C00109B6E2A10
S1131BC000D18FE017D8632A2CD008D8002A00D17E
S1131BD099E0582A54D026004236327029E0642A0B
S1131BE001D0692AF7D121681A68080623D5111D86
S1131BF01960156825E0732A00D188E008D86F2A97
S1131C0029D0702AE7D1202209680A43226003E020
S1131C10752A20D0782ADED122007821453211702D
S1131C206C4A30E00E001A684236111D19601368C0
S1131C303370012379E04906D9D5111D19600023B9
S1131C40D55E002D03DA2D23049A6D421370624B86
S1131C500A2703932FE020681968050603D5081D99
S1131C6018600D6805E04006F9D50D68081D186078
S1131C70ADB2594B082703936F2A18D00A2716E0F0
S1131C8045310A70544A03921A682168101D18607D
S1131C901568080622D5CB0702D5202319432160F5
S1131CA01027002D03D1202322689A4322602300A9
S1131CB0002243331A706368A360002B5CDB0422A8
S1131CC0216891432160002D58D1049E002B64D0DB
S1131CD02600039B42361B7833705EE04806DAD553
S1131CE0ADB2D8E709681A68080605D5111D196050
S1131CF0136862691A6006E04906F7D5111D196078
S1131D001368A28A1A800023049E236154E01A688F
S1131D10111D1960166800216268300000F05EF839
S1131D20002801D0801B6060636823610023049A4B
S1131D30137041E02369320006990598079DA8476E
S1131D40431C43D0236800259B070FD4099BE068FC
S1131D5098423DDA18003BE022000123193206992B
S1131D600598079EB047431C30D00135E368099AB3
S1131D709B1A9D42F0DBE9E7002DA9D0049E2800C0
S1131D803900FFF7D5FB039B013E5B5C28003370F1
S1131D903900FFF747FB051EF1D1082F09D123684D
S1131DA0DB0706D563682269934202DC3023013ED7
S1131DB03370049B9B1B2361079B09AA009321009A
S1131DC0069B0598FFF782FE431CB3D101204042D5
S1131DD00BB0F0BD8E2100007D210000C9B2821835
S1131DE0904201D10020704703788B42FBD0013030
S1131DF0F6E710B5884202D98B18984208D300231D
S1131E009A4207D0CC5CC4540133F9E78B5C835409
S1131E10013AFBD210BD000070B50500002910D0B6
S1131E200C1F2368002B00DAE418280000F0D4F813
S1131E301D4A1368002B05D163601460280000F06C
S1131E40CCF870BDA34209D9216860188342F3D14C
S1131E5018685B6841182160EEE713005A68002A8D
S1131E6001D0A242F9D919685818A0420BD12068B0
S1131E700918581819608242E0D110685268411854
S1131E8019605A60DAE7A04202D90C232B60D5E727
S1131E9021686018824203D1106852684118216099
S1131EA062605C60CAE7C046C0000020032370B5CE
S1131EB0CD1C9D43083506000C2D1ED20C25A942CD
S1131EC01DD8300000F088F8254A14682100002944
S1131ED019D1244C2368002B03D1300000F06AF898
S1131EE020602900300000F065F8431C2CD10C233D
S1131EF03000336000F071F803E0002DDFDA0C23CA
S1131F003360002070BD0B685B1B1AD40B2B03D904
S1131F100B60CC18256003E08C420ED1636813601B
S1131F20300000F05AF8200007220B30231D9043A4
S1131F30C31AE7D05A42E250E4E74B6863600C00EE
S1131F40EEE70C004968C2E70323C41C9C43A0428B
S1131F50E0D0211A300000F02DF8431CDAD1C6E796
S1131F60C0000020C4000020F8B507000D001600D2
S1131F70002905D11100FFF799FF04002000F8BDE6
S1131F80002A03D1FFF748FF3400F7E700F026F8F2
S1131F902C008642F2D931003800FFF787FF041E77
S1131FA0ECD029003200FFF7F7FB29003800FFF7D7
S1131FB033FFE3E7002370B5064C050008002360F7
S1131FC0FFF70CF9431C03D12368002B00D02B60CE
S1131FD070BDC04664010020704770470B1F1B682A
S1131FE0181F002B01DA0B58C01870472603000095
S1131FF07205000072050000720500007205000001
S113200072050000720500007205000072050000F0
S113201072050000720500007205000072050000E0
S11320207205000072050000720500000E03000036
S113203072050000720500007205000072050000C0
S113204072050000720500007205000072050000B0
S113205072050000720500007205000072050000A0
S11320607205000072050000720500001E030000E6
S11320707205000072050000720500007205000080
S11320807205000072050000720500007205000070
S11320907205000072050000720500007205000060
S11320A072050000720500007205000016030000AE
S11320B02E030000F602000006030000FE020000EA
S11320C002000000030000002800000029000000B6
S11320D004000000050000000600000007000000E6
S11320E02000000021000000220000002300000066
S11320F02400000025000000260000002700000046
S113210008000000090000000A0000000B000000A5
S1132110EA080000E6080000E60800004C09000098
S11321204C090000FE080000F0080000040900004B
S11321303A0900000C0B0000EC0A0000EC0A000055
S1132140780B0000FE0A00001A0B0000F00A0000E1
S1132150280B0000680B00002564000048656C6CC7
S11321606F20576F726C64210D0A0000232D302BF1
S11321702000686C4C006566674546470030313284
S113218033343536373839414243444546003031DB
S1132190323334353637383961626364656600003A
S11321A0F8B5C046F8BC08BC9E467047DD00000088
S11321B0F8B5C046F8BC08BC9E467047B5000000A0
S10B21C0BCF3FF7F01000000E5
S11321C8006CDC02401F0000080000000100000051
S11321D800000000000D0A001C00002000000000A0
S11321E800000000000000000000000000000000E3
S11321F800000000000000000000000000000000D3
S113220800000000000000000000000000000000C2
S113221800000000000000000000000000000000B2
S113222800000000000000000000000000000000A2
S10F223800000000000000000000000096
S90310F9F3
